:100000000C9434000C943E000C943E000C943E0082
:100010000C943E000C943E000C943E000C943E0068
:100020000C943E000C943E000C943E000C943E0058
:100030000C943E000C943E000C943E000C943E0048
:100040000C943E000C943E000C943E000C943E0038
:100050000C943E000C943E000C943E000C943E0028
:100060000C943E000C943E0011241FBECFEFD8E04C
:10007000DEBFCDBF0E94F1000C9476020C9400000C
:100080009C0150E040E060E472E48FE090E00E9468
:100090000601215031093093C5002093C400E1ECE2
:1000A000F0E088E1808380818064808386E08093B3
:1000B000C20008959091C00095FFFCCF8093C600C8
:1000C00008958091C000881F8827881F0895809117
:1000D000C00087FFFCCF8091C60008950F931F9347
:1000E000CF93DF93EC0110E000E0FE0101900020CF
:1000F000E9F73197EC1BFD0B0E171F0728F0DF9176
:10010000CF911F910F910895FE01E00FF11F8081A3
:100110000E945A000F5F1F4FE8CFEF92FF920F939C
:100120001F93CF93DF9300D000D0CDB7DEB7BC01D3
:1001300081E090E00E94F2007B0110E000E0E982A3
:10014000FA820B831C83C8010E94E8012CE930E588
:1001500048E858E369837A838B839C8369817A8139
:100160008B819C810E94470169837A838B839C8366
:1001700069817A818B819C810E94B90169837A832C
:100180008B839C8380E090E0A1E0B0E09C01AD0116
:10019000E980FA800B811C812E193F09400B510B1D
:1001A000CA01B9010F900F900F900F90DF91CF917E
:1001B0001F910F91FF90EF9008950E948D00462FA0
:1001C000572F50938500409384001092800085E063
:1001D00080938100B09BFECFB09A8FEF8093810017
:1001E0000895FFCFAA1BBB1B51E107C0AA1FBB1F6D
:1001F000A617B70710F0A61BB70B881F991F5A95B3
:10020000A9F780959095BC01CD010895052E97FB27
:100210001EF400940E941D0157FD07D00E94250185
:1002200007FC03D04EF40C941D0150954095309579
:1002300021953F4F4F4F5F4F089590958095709552
:1002400061957F4F8F4F9F4F0895A1E21A2EAA1BF1
:10025000BB1BFD010DC0AA1FBB1FEE1FFF1FA21776
:10026000B307E407F50720F0A21BB30BE40BF50B73
:10027000661F771F881F991F1A9469F760957095FC
:10028000809590959B01AC01BD01CF0108950E941E
:100290005B010C943C020E94350258F00E942E0231
:1002A00040F029F45F3F29F00C94250251110C9481
:1002B00070020C942B020E944D0268F39923B1F353
:1002C000552391F3951B550BBB27AA27621773077C
:1002D000840738F09F5F5F4F220F331F441FAA1F10
:1002E000A9F335D00E2E3AF0E0E832D091505040CC
:1002F000E695001CCAF72BD0FE2F29D0660F771F7A
:10030000881FBB1F261737074807AB07B0E809F05F
:10031000BB0B802DBF01FF2793585F4F3AF09E3FE4
:10032000510578F00C9425020C9470025F3FE4F3C1
:10033000983ED4F3869577956795B795F7959F5F27
:10034000C9F7880F911D9695879597F90895E1E073
:10035000660F771F881FBB1F621773078407BA07D2
:1003600020F0621B730B840BBA0BEE1F88F7E0952D
:1003700008950E94550288F09F5798F0B92F992749
:10038000B751B0F0E1F0660F771F881F991F1AF080
:10039000BA95C9F714C0B13091F00E946F02B1E074
:1003A00008950C946F02672F782F8827B85F39F073
:1003B000B93FCCF3869577956795B395D9F73EF419
:1003C00090958095709561957F4F8F4F9F4F0895C1
:1003D000E89409C097FB3EF49095809570956195DF
:1003E0007F4F8F4F9F4F9923A9F0F92F96E9BB2795
:1003F0009395F695879577956795B795F111F8CF11
:10040000FAF4BB0F11F460FF1BC06F5F7F4F8F4F7B
:100410009F4F16C0882311F096E911C0772321F071
:100420009EE8872F762F05C0662371F096E8862F09
:1004300070E060E02AF09A95660F771F881FDAF760
:10044000880F9695879597F9089597F99F6780E8A3
:1004500070E060E008959FEF80EC089500240A9416
:100460001616170618060906089500240A9412168F
:100470001306140605060895092E0394000C11F4C2
:10048000882352F0BB0F40F4BF2B11F460FF04C06F
:100490006F5F7F4F8F4F9F4F089557FD9058440FC8
:1004A000551F59F05F3F71F04795880F97FB991FD3
:1004B00061F09F3F79F08795089512161306140690
:1004C000551FF2CF4695F1DF08C01616170618061D
:1004D000991FF1CF86957105610508940895E894F8
:1004E000BB2766277727CB0197F90895F894FFCFAC
:00000001FF
